:020000040000FA
:100000000C9462000C948A000C948A000C948A0070
:100010000C948A000C948A000C948A000C948A0038
:100020000C948A000C948A000C948A000C948A0028
:100030000C948A000C948A000C948A000C948A0018
:100040000C9448020C948A000C94B8020C9492020E
:100050000C948A000C948A000C948A000C948A00F8
:100060000C948A000C948A000000000023002600F3
:10007000290000000000240027002A0000000000E2
:10008000250028002B0004040404040404040202D4
:100090000202020203030303030301020408102007
:1000A0004080010204081020010204081020000012
:1000B0000008000201000003040700000000000027
:1000C0000000EA0211241FBECFEFD8E0DEBFCDBF93
:1000D00011E0A0E0B1E0E2EFFBE002C005900D927C
:1000E000A839B107D9F722E0A8E9B1E001C01D9213
:1000F000A835B207E1F710E0C2E6D0E004C02197CE
:10010000FE010E94F105C136D107C9F70E94210303
:100110000C94F7050C940000833081F028F48130B2
:1001200099F08230A9F008958730A9F08830C9F09D
:100130008430B1F4809180008F7D03C08091800075
:100140008F7780938000089584B58F7784BD08955C
:1001500084B58F7DFBCF8091B0008F778093B00006
:1001600008958091B0008F7DF9CF1F93CF93DF93D7
:10017000282F30E0F901E255FF4F8491F901E6564E
:10018000FF4FD491F901EA57FF4FC491CC23A9F056
:10019000162F81110E948C00EC2FF0E0EE0FFF1F54
:1001A000E458FF4FA591B4918FB7F894EC911111D9
:1001B00008C0D095DE23DC938FBFDF91CF911F91D4
:1001C0000895DE2BF8CFCF93DF9390E0FC01E65645
:1001D000FF4F24918A579F4FFC0184918823D1F0CF
:1001E00090E0880F991FFC01EE58FF4FA591B49144
:1001F000FC01E458FF4FC591D49161110EC09FB727
:10020000F8948C91E22FE0958E238C932881E22341
:10021000E8839FBFDF91CF9108958FB7F894EC9159
:10022000E22BEC938FBFF6CF2FB7F8946091B30118
:100230007091B4018091B5019091B6012FBF0895DE
:10024000AF92BF92CF92DF92EF92FF920F931F93E4
:10025000CF93DF936C017B018B01040F151FEB0122
:100260005E01AE18BF08C017D10759F06991D601D9
:10027000ED91FC910190F081E02DC6010995892B4B
:1002800079F7C501DF91CF911F910F91FF90EF900A
:10029000DF90CF90BF90AF900895FC01538D448DB7
:1002A000252F30E0842F90E0821B930B541710F021
:1002B000CF96089501970895FC01918D828D98172E
:1002C00061F0A28DAE0FBF2FB11D5D968C91928D06
:1002D0009F5F9F73928F90E008958FEF9FEF089537
:1002E000FC01918D828D981731F0828DE80FF11D00
:1002F000858D90E008958FEF9FEF0895FC01918D1B
:10030000228D892F90E0805C9F4F821B91098F7313
:100310009927089587EB91E00E947E0121E0892BC7
:1003200009F420E0822F089580E090E0892B29F0E5
:100330000E948A0181110C9400000895FC01A48D93
:10034000A80FB92FB11DA35ABF4F2C91848D90E0F7
:1003500001968F739927848FA689B7892C93A089DA
:10036000B1898C91837080648C93938D848D981364
:1003700006C00288F389E02D80818F7D80830895F7
:10038000EF92FF920F931F93CF93DF93EC0181E0E5
:10039000888F9B8D8C8D98131AC0E889F98980818C
:1003A00085FF15C09FB7F894EE89FF896083E889BF
:1003B000F98980818370806480839FBF81E090E0B1
:1003C000DF91CF911F910F91FF90EF900895F62E3E
:1003D0000B8D10E00F5F1F4F0F731127E02E8C8DD8
:1003E0008E110CC00FB607FCFACFE889F98980811D
:1003F00085FFF5CFCE010E949E01F1CFEB8DEC0F72
:10040000FD2FF11DE35AFF4FF0829FB7F8940B8F39
:10041000EA89FB8980818062CFCFCF93DF93EC01A3
:10042000888D8823B9F0AA89BB89E889F9898C91DC
:1004300085FD03C0808186FD0DC00FB607FCF7CF98
:100440008C9185FFF2CF808185FFEDCFCE010E9498
:100450009E01E9CFDF91CF910895FC01019000202A
:10046000E9F73197AF01481B590BBC0187EB91E0CD
:100470000C942001CF93DF930E942D02EC0182E1C6
:1004800091E00E942D028C0F9D1FDF91CF91089566
:100490001F920F920FB60F9211242F933F938F93B9
:1004A0009F93AF93BF938091B3019091B401A091BA
:1004B000B501B091B6013091B20123E0230F2D3781
:1004C00058F50196A11DB11D2093B2018093B3018F
:1004D0009093B401A093B501B093B6018091AE01A1
:1004E0009091AF01A091B001B091B1010196A11D11
:1004F000B11D8093AE019093AF01A093B001B09372
:10050000B101BF91AF919F918F913F912F910F902A
:100510000FBE0F901F90189526E8230F0296A11D7D
:10052000B11DD2CF1F920F920FB60F9211242F93AD
:100530003F934F935F936F937F938F939F93AF936B
:10054000BF93EF93FF9387EB91E00E949E01FF9191
:10055000EF91BF91AF919F918F917F916F915F913B
:100560004F913F912F910F900FBE0F901F901895B4
:100570001F920F920FB60F9211242F938F939F9378
:10058000EF93FF93E091C701F091C8018081E09162
:10059000CD01F091CE0182FD1BC090818091D001F0
:1005A0008F5F8F732091D101821741F0E091D001CC
:1005B000F0E0E954FE4F958F8093D001FF91EF91C9
:1005C0009F918F912F910F900FBE0F901F901895B4
:1005D0008081F4CFE7EBF1E01382128288EE93E0A2
:1005E000A0E0B0E084839583A683B78384E091E0A4
:1005F0009183808385EC90E09587848784EC90E0FC
:100600009787868780EC90E0918B808B81EC90E0DF
:10061000938B828B82EC90E0958B848B86EC90E0C0
:10062000978B868B118E128E138E148E0E9414015E
:100630006093540270935502809356029093570230
:100640000895CF93DF93CDB7DEB7A1970FB6F89497
:10065000DEBF0FBECDBF789484B5826084BD84B503
:10066000816084BD85B5826085BD85B5816085BDAD
:1006700080916E00816080936E0010928100809165
:1006800081008260809381008091810081608093ED
:100690008100809180008160809380008091B10012
:1006A00084608093B1008091B00081608093B0003D
:1006B00080917A00846080937A0080917A008260D1
:1006C00080937A0080917A00816080937A00809193
:1006D0007A00806880937A001092C100E091C7018F
:1006E000F091C80182E08083E091C301F091C401E0
:1006F0001082E091C501F091C6018FEC80831092C9
:10070000CF01E091CB01F091CC0186E08083E091B4
:10071000C901F091CA01808180618083E091C901A3
:10072000F091CA01808188608083E091C901F091D5
:10073000CA01808180688083E091C901F091CA017B
:1007400080818F7D808361E08DE00E94E30061E025
:100750008BE00E94E30060E08EE00E94E300E8EBA3
:10076000F0E08491E4EAF0E00491E0E9F0E0149133
:100770001111DFC084E090E090939F0180939E016F
:1007800060E08DE00E94B50061E08BE00E94E30034
:1007900060E08BE00E94B50085E191E00E943A02A2
:1007A0008FE291E00E943A028DE391E00E943A02CA
:1007B0009AE0492E512C612C712C25E0222E312CEF
:1007C00088248394912C00E41CE880E0A82E80E02B
:1007D000B82E0E941401C0909A01D0909B01E09025
:1007E0009C01F0909D016C197D098E099F096A3F5B
:1007F000710581059105D8F00E94140160939A015A
:1008000070939B0180939C0190939D0161E0809186
:10081000980190919901892B09F060E0862F90E072
:1008200090939901809398018DE00E94B500009308
:100830007C0080917A00806480937A0080917A00B5
:1008400086FDFCCF809178009091790088359240A8
:100850000CF081C01092A1011092A00187EB91E0F1
:100860000E947E01892BE1F08091A8019091A9015D
:10087000892BB1F487EB91E00E945C011092A301F7
:100880001092A201843761F43092A9012092A8014C
:1008900088E691E00E943A029092A3018092A20120
:1008A0000E9414012091AA013091AB014091AC014A
:1008B0005091AD01621B730B840B950B683E734026
:1008C0008105910508F43EC10E9414016093AA01BC
:1008D0007093AB018093AC019093AD018091A8011E
:1008E0009091A901892B09F4E3C08091A401909112
:1008F000A501A091A601B091A701892B8A2B8B2B72
:1009000009F0D6C061E08BE00E94E300E9EBF0E083
:100910008491833009F427C108F0ADC0813009F417
:10092000BFC0823009F41AC161E08BE00E94B500BB
:10093000BBC081110E948C00E12FF0E0EE0FFF1F81
:10094000E859FF4FA591B491EC91E02309F412CF3F
:1009500087E090E011CFE090A001F090A10180919C
:100960009E0190919F018E159F050CF477CF809189
:10097000A8019091A901892B59F00E94140160935C
:10098000540270935502809356029093570266CF9B
:100990000E94140120915402309155024091560258
:1009A00050915702621B730B840B950B60327E448F
:1009B0008105910508F452CF1092A3011092A20173
:1009C000FFEFEF1AFF0AF092A101E092A0018AE086
:1009D00090E09093A9018093A8018FE591E00E9497
:1009E0002D02C090A001D090A1010D2C000CEE08AA
:1009F000FF08F7FE2AC06DE287EB91E00E94C0017C
:100A000022273327A9012C193D094E095F0919A294
:100A1000FE01B1967F01CA01B901A30192010E94B2
:100A2000CF05605DF70162937F0121153105410516
:100A3000510589F7E114F10419F0C7010E942D0254
:100A400082E191E00E942D0209CFA701960119A22F
:100A5000CE0181967C01CA01B901A30192010E94D5
:100A6000CF05605DF70162937F01211531054105D6
:100A7000510589F7DFCF873009F481C0883009F448
:100A800086C0843009F050CF8091800080628093CE
:100A90008000ECE8F0E0F0938B00E0938A0004C063
:100AA00084B5806884BD17BD89E791E00E943A0251
:100AB0008091A8019091A901892B71F48091A201E4
:100AC0009091A301019741F489E891E00E943A02D4
:100AD0001092A3011092A2018091A8019091A90106
:100AE000892BC1F48091A4019091A501A091A60148
:100AF000B091A701892B8A2B8B2B61F061E08BE0F1
:100B00000E94E30060E08BE00E94B5008FE291E07C
:100B10000E943A028091A8019091A901AC01092E8E
:100B2000000C660B770B4093A4015093A5016093D2
:100B3000A6017093A701009729F001979093A9014E
:100B40008093A801A114B10409F443CE0E948A0144
:100B5000882309F438CE0E94000035CE84B5806227
:100B600084BD18BDA1CF80918000806880938000F3
:100B70008CE890E0909389008093880095CF8091D5
:100B8000B00080688093B0001093B3008DCF809147
:100B9000B00080628093B0001093B40085CFA1E2D2
:100BA0001A2EAA1BBB1BFD010DC0AA1FBB1FEE1FE7
:100BB000FF1FA217B307E407F50720F0A21BB30B32
:100BC000E40BF50B661F771F881F991F1A9469F7AE
:100BD00060957095809590959B01AC01BD01CF010A
:100BE0000895EE0FFF1F0590F491E02D0994F894FD
:100BF000FFCF00000000C00120014D010D027E0169
:100C00005C0170010D0A00486F6C6121212E2049A2
:100C10006E696369616E646F2053697374656D6199
:100C2000004D6F746F72204170616761646F005096
:100C30006172612074657374656F206465206D6FE7
:100C4000746F722070726573696F6E6520277427E8
:100C500000526F6E6461203A2000496E69636961D9
:100C60006E646F2074657374656F004D6F746F727E
:100C700020456E63656E6469646F0046696E20642A
:0A0C8000656C2054657374656F0005
:107E0000112484B714BE81FFF0D085E080938100F7
:107E100082E08093C00088E18093C10086E0809377
:107E2000C20080E18093C4008EE0C9D0259A86E02C
:107E300020E33CEF91E0309385002093840096BBD3
:107E4000B09BFECF1D9AA8958150A9F7CC24DD24C4
:107E500088248394B5E0AB2EA1E19A2EF3E0BF2EE7
:107E6000A2D0813461F49FD0082FAFD0023811F036
:107E7000013811F484E001C083E08DD089C08234E0
:107E800011F484E103C0853419F485E0A6D080C0E4
:107E9000853579F488D0E82EFF2485D0082F10E0AE
:107EA000102F00270E291F29000F111F8ED06801E7
:107EB0006FC0863521F484E090D080E0DECF843638
:107EC00009F040C070D06FD0082F6DD080E0C81688
:107ED00080E7D80618F4F601B7BEE895C0E0D1E017
:107EE00062D089930C17E1F7F0E0CF16F0E7DF06D8
:107EF00018F0F601B7BEE89568D007B600FCFDCFD4
:107F0000A601A0E0B1E02C9130E011968C91119780
:107F100090E0982F8827822B932B1296FA010C0160
:107F200087BEE89511244E5F5F4FF1E0A038BF0790
:107F300051F7F601A7BEE89507B600FCFDCF97BE46
:107F4000E89526C08437B1F42ED02DD0F82E2BD052
:107F50003CD0F601EF2C8F010F5F1F4F84911BD097
:107F6000EA94F801C1F70894C11CD11CFA94CF0C13
:107F7000D11C0EC0853739F428D08EE10CD085E9AC
:107F80000AD08FE07ACF813511F488E018D01DD067
:107F900080E101D065CF982F8091C00085FFFCCF94
:107FA0009093C60008958091C00087FFFCCF809118
:107FB000C00084FD01C0A8958091C6000895E0E648
:107FC000F0E098E1908380830895EDDF803219F02E
:107FD00088E0F5DFFFCF84E1DECF1F93182FE3DFCA
:107FE0001150E9F7F2DF1F91089580E0E8DFEE27F6
:047FF000FF270994CA
:027FFE00040479
:00000001FF
